:0200000270008C
:10A00000807F002049DA070071DA070073DA070061
:10A0100075DA070077DA070079DA07000000000038
:10A020000000000000000000000000007BDA0700D4
:10A030007DDA0700000000007FDA070081DA070000
:10A0400083DA070083DA0700D5CC070083DA07003C
:10A0500083DA070083DA070083DA070083DA070070
:10A0600083DA0700FDD9070083DA070083DA0700E7
:10A0700083DA070083DA070083DA070083DA070050
:10A0800083DA0700C1A8070083DA070083DA070034
:10A090007DA9070083DA070019D7070083DA0700D4
:10A0A00083DA070083DA070083DA070083DA070020
:10A0B00083DA070083DA07000000000000000000D8
:10A0C00083DA070083DA070083DA070083DA070000
:10A0D00083DA070083DA070083DA07000000000054
:10A0E0000000000000000000000000000000000070
:10A0F0000000000000000000000000000000000060
:10A10000000000000000000000000000000000004F
:10A11000000000000000000000000000000000003F
:10A4000010B5054C237833B9044B13B10448AFF3AE
:10A4100000800123237010BD782C00200000000074
:10A4200058DB07000C4B43B10C480D4910B5AFF396
:10A4300000800C48036823B910BD0A48036833B98B
:10A440007047094B002BF7D0BDE810401847064B6A
:10A45000002BF5D0184700BF0000000058DB0700B4
:10A460007C2C0020742C002000000000154B002BD9
:10A4700008BF134B9D46A3F5803A00218B460F463B
:10A480001348144A121A00F063F80F4B002B00D047
:10A4900098470E4B002B00D0984700200021040065
:10A4A0000D000D48002802D00C48AFF3008000F0EA
:10A4B0002BF82000290002F0BFFE00F011F800BFC9
:10A4C00000000800807F0020000000000000000065
:10A4D000782C002048380020000000000000000018
:10A4E00008B5074B044613B10021AFF30080054BBC
:10A4F0001868836A03B19847204600F031F800BF1E
:10A5000000000000B4DA070070B50D4E0D4CA41B1E
:10A51000A4100025A54209D10B4E0C4C03F0BEFA45
:10A52000A41BA4100025A54205D170BD56F8253006
:10A5300098470135EEE756F8253098470135F2E7A0
:10A540006C2C00206C2C00206C2C0020702C002027
:10A5500002440346934200D1704703F8011BF9E718
:10A56000FEE700BF1FB50021039001AA44F20100DD
:10A57000ADF80410029100F003F805B05DF804FB9B
:10A58000BFF34F8F0549064BCA6802F4E0621343DC
:10A59000CB60BFF34F8F00BFFDE700BF00ED00E0D1
:10A5A0000400FA0512F0030310B511D1094C226022
:10A5B0004C1CE400A4B22244074C2260074A1370EA
:10A5C000074A1370074A1080074A1180184610BDC9
:10A5D000072010BD9C2C0020982C0020942C0020DB
:10A5E000A42C0020A02C0020A22C00202DE9F34751
:10A5F0002B4D2B888B4206460C4617464BD302A8A0
:10A600004FF0000800F8018D00F0D0FC254B264AE1
:10A6100018781178CBB2254909888B4238BF0133AD
:10A62000C0B238BF5FFA83F840452ED092F8008060
:10A630001378DBB2994286BF0133DBB2002313707B
:10A640009DF8070000F0D6FC4FF6FF73984524D024
:10A65000DFF860A0DAF800304FEAC80903EB09021E
:10A6600043F83870A6B19CB1114B28881B6822466C
:10A6700008FB0030314603F005FADAF800304B44AD
:10A6800000209C8002B0BDE8F0874FF6FF78D7E746
:10A6900000209080F6E70920F4E70420F2E700BFED
:10A6A000A02C0020A42C0020942C0020A22C002000
:10A6B000982C00209C2C0020F8B5124C124E2546F8
:10A6C000227833789A421CD010492278237809885E
:10A6D0000F48DBB2994286BF0133DBB200232B70F7
:10A6E0000C4B07881B680C48D2B211B203EBC10EA9
:10A6F000006853F83130BEF8041002FB0700984799
:10A70000DEE7F8BDA42C0020942C0020A22C002011
:10A71000A02C00209C2C0020982C0020494B4FF4AA
:10A720000032C3F8802003F1C04303F53C534FF4DB
:10A730008032C3F848230121C3F808232F2259602F
:10A740001046013800BF00BF00BF00BF00BF00BF00
:10A7500000BF00BF00BF00BF00BF00BF00BF00BF01
:10A7600000BF00BF00BF00BF00BF00BF00BF00BFF1
:10A7700000BF00BF00BF00BF00BF00BF00BF00BFE1
:10A7800000BF00BF00BF00BF00BF00BF00BF00BFD1
:10A7900000BF00BF00BF00BF00BF00BF00BF00BFC1
:10A7A00000BF00BF00BF00BF00BF00BF00BF00BFB1
:10A7B00000BF00BF00BF00BFC3D199602249002382
:10A7C0000B601046013800BF00BF00BF00BF00BFD4
:10A7D00000BF00BF00BF00BF00BF00BF00BF00BF81
:10A7E00000BF00BF00BF00BF00BF00BF00BF00BF71
:10A7F00000BF00BF00BF00BF00BF00BF00BF00BF61
:10A8000000BF00BF00BF00BF00BF00BF00BF00BF50
:10A8100000BF00BF00BF00BF00BF00BF00BF00BF40
:10A8200000BF00BF00BF00BF00BF00BF00BF00BF30
:10A8300000BF00BF00BF00BF00BFC3D1034A1370F9
:10A84000704700BF00E100E0BC2C0020AD2C0020D0
:10A85000437882780133DBB29A4208BF0023027842
:10A860009A421FBF0B704378406803EB430314BF49
:10A8700000EBC30000207047EFF30583C3F3080328
:10A88000BBB1103B5AB2002AABBF02F1604303F0E8
:10A890000F0303F56143094AACBF93F80033D35C5F
:10A8A0005B09DBB2022B06D0062B0CBF0120022075
:10A8B0007047022070470020704700BF14ED00E091
:10A8C0002DE9F0412549264B0025C1F84051C1F83A
:10A8D0004451C1F84851C1F84C51C1F80051C1F878
:10A8E00004511B68002B31D0D1F804451D49DFF815
:10A8F00088800968641A24F07F442F461A68A242AF
:10A900000FD8A41A15441A7CDE694AB1D8F8002081
:10A910001F74FAB199695869904708B1FFF722FE90
:10A92000B6B9114B114A197813788B4205D101330E
:10A93000DBB2022B08BF0023137012780C4B43F8D4
:10A9400022500C4B4FF48012C3F80021BDE8F08177
:10A950003346D3E75A6998699047E1E70010014010
:10A96000C42C0020BC2C0020B82C0020B92C0020C6
:10A97000B02C002000E100E0A82C00202DE9F04FD1
:10A980009649974A97480B68007885B001931378E9
:10A99000984200F01F810133DBB2022B08BF002375
:10A9A00013701278904B53F82200019B034423F05C
:10A9B0007F430B604FF0010B8C4B1B6802938C4B59
:10A9C00093F800C08B4B1B6800930B6803938A4B72
:10A9D000002193F800E0029B644688460F46013C44
:10A9E000E4B2FF2C40F0108117B1834A82F800E0F6
:10A9F000B8F1000F02D0794A039C14607B4A01B180
:10AA000013601368BBF1000F40F039810299B3EB7A
:10AA1000010B18BF4FF0010B002413680193764B14
:10AA2000019A1B7802936D4B03930027D3F80080A3
:10AA3000BE464FF0010A0CF1FF335FFA83FCBCF114
:10AA4000FF0F40F04081694B07B11A601B68019A03
:10AA50009A4203D1BBF1000F00F0B680002B00F04A
:10AA60009B811F68654A039BD2F804451B68644DAF
:10AA7000E11A287821F07F41033100284BD14FF4AF
:10AA80008030C2F84403C2F804035E484FF4003635
:10AA9000C0F880610660012616602F20013800BFD3
:10AAA00000BF00BF00BF00BF00BF00BF00BF00BFAE
:10AAB00000BF00BF00BF00BF00BF00BF00BF00BF9E
:10AAC00000BF00BF00BF00BF00BF00BF00BF00BF8E
:10AAD00000BF00BF00BF00BF00BF00BF00BF00BF7E
:10AAE00000BF00BF00BF00BF00BF00BF00BF00BF6E
:10AAF00000BF00BF00BF00BF00BF00BF00BF00BF5E
:10AB000000BF00BF00BF00BF00BF00BF00BF00BF4D
:10AB100000BFC3D12E708F422CBFDB195B1823F00E
:10AB20007F43C2F84035D2F80415091B21F07F415C
:10AB30001B1B033123F07F43994245D9D2F80435DA
:10AB4000C2F840352F20013800BF00BF00BF00BF52
:10AB500000BF00BF00BF00BF00BF00BF00BF00BFFD
:10AB600000BF00BF00BF00BF00BF00BF00BF00BFED
:10AB700000BF00BF00BF00BF00BF00BF00BF00BFDD
:10AB800000BF00BF00BF00BF00BF00BF00BF00BFCD
:10AB900000BF00BF00BF00BF00BF00BF00BF00BFBD
:10ABA00000BF00BF00BF00BF00BF00BF00BF00BFAD
:10ABB00000BF00BF00BF00BF00BF00BFC3D1114B2B
:10ABC0004FF40032C3F800210B4B00221A7005B07D
:10ABD000BDE8F08F00208346EEE600BFBC2C0020CD
:10ABE000B82C0020B92C0020B02C0020C42C002050
:10ABF000C02C0020C82C0020AC2C002000100140EC
:10AC0000AD2C002000E100E022B2009D009E05EB8B
:10AC1000C20516F832206E7896423FF4E0AE6E68B8
:10AC200002EB420906EBC90A0132AE78D2B2964273
:10AC300008BF00226E6816F83960022E09D0032E74
:10AC4000E9D1002BE7D04FF000011974DB69012135
:10AC5000F7E7DAF804901E469A46BAF1000FDAD008
:10AC6000D14500F09C805646DAF81CA0F5E757491C
:10AC700001278F60B84639460393BE4696E000210F
:10AC80000C460E460F4623B900293FF4C6AE1360AA
:10AC9000C3E61D68854204D901B11360281A186003
:10ACA000BBE6401B2E44DD681F60D3F81CE03DB1BD
:10ACB0000199DC61314421F07F4159609D601C465F
:10ACC00073465946DFE7009B03EBCC052CBB2B7882
:10ACD000697899423FF4AFAE03EB430695F80290D2
:10ACE00068680133DBB299452B7008BF2C7010F8EF
:10ACF0003630012B00EBC601E9D14B68187C0028E7
:10AD0000E5D18E685E60CE689E600E69DE6049693E
:10AD10009961029919B1586001E02346E4695968C4
:10AD20002B4EA1EB080020F07F40B0429E6814D863
:10AD300030441860C3F804E0C3F808E083F810A0BA
:10AD4000C3F81CE032B118681168884218D8081A94
:10AD50001060DA611A460127B8E7A8EB010121F07B
:10AD60007F41B1423ABF711A1960C3F800E0E1E7D0
:10AD7000801BCE6989466EB91860DE61CB61A5E79C
:10AD8000914611460E688642F2D3361A0E600E4680
:10AD90004946F1E73146F5E7FFF7C0FC14E7B14556
:10ADA00004D1DB69002B3FF462AF0121D9F800A088
:10ADB000D9F81C90C6F81C90B9F1000F3FF42BAFE6
:10ADC000D9F800605644C9F8006024E7001001403B
:10ADD000FEFF7F002DE9F84312F003050746884681
:10ADE0001446994602D11E4E1AB932600720BDE8BA
:10ADF000F883FFF793FC1B4A1B4BC2F80090032219
:10AE00001A70346004F1180208EB4806F600114687
:10AE100062602570657084F8028008348C42324488
:10AE2000F6D1124A124B1560124A1570124AC0210F
:10AE300015704FF48012C3F8802183F814131A6040
:10AE400002F18042A2F56F220020C2F8087583F853
:10AE500011130A4BD2F804251A60BDE8F88300BF2D
:10AE6000C82C0020A82C0020C02C0020C42C0020BE
:10AE700000E100E0B82C0020B92C0020BC2C002000
:10AE8000074B1B684BB132B128B10368187C20B95D
:10AE900059745A617047072070470820704700BFF7
:10AEA000C82C00202DE9F3411B4B1C6805460E46BB
:10AEB00017467CB370B304292AD9436953B3437C42
:10AEC000012B0CBF88464FF00008FFF7D5FC04EBC0
:10AED000C0040DF107012046FFF7BAFCB0B1012311
:10AEE00003700E4B4560D3F8043583609DF807303E
:10AEF000C660C0F8108047616370094B4FF4801240
:10AF0000C3F80021002002B0BDE8F0810420FAE778
:10AF10000720F8E70820F6E7C82C002000100140C1
:10AF200000E100E073B5124B1D680646F5B1E8B1CB
:10AF30004369DBB100240474FFF79EFC05EBC005F8
:10AF40000DF107012846FFF783FC68B10223037067
:10AF50009DF8073046606B70064B4FF48012C3F8C3
:10AF60000021204602B070BD0420FBE70820F9E76D
:10AF7000C82C002000E100E0082910B5044602D0EA
:10AF80000020FFF7EFFA23686068BDE8104018471B
:10AF900007B5054A8DE8030008216846FFF726FB40
:10AFA00003B05DF804FB00BF79AF070070B5EFF3A5
:10AFB000108672B60C4A946801239CB993600B4BBF
:10AFC0000B4DD3F8801029401160C3F88050D3F89E
:10AFD000841051604FF0FF32C3F88420047006B92A
:10AFE00062B670BD0370FAE73C38002000E100E073
:10AFF000FC06FFBC10B5084B9A685AB150B9EFF384
:10B00000108272B605491C680C605C684C609860E0
:10B0100002B962B610BD00BF3C38002000E100E07C
:10B0200048DF704711DF704713DF7047064B187811
:10B03000012803D1012904BF0221197012B1104661
:10B04000FFF790BA704700BFD42C002010B5064C13
:10B05000FFF7E6FF08B1FFF785FAFFF72DFB23782E
:10B06000023B022BF4D810BDD42C002008B51C21C3
:10B07000084802F02DF808B1FFF774FA00231C22EB
:10B080000549044802F014F818B1BDE80840FFF77C
:10B0900069BA08BDCC2C0020D82C002007B5036865
:10B0A000013303D1002003B05DF804FB01A800F0D8
:10B0B0003BF9019B1A78012AF4D1588830B199687C
:10B0C00043F208030022186800F052F9019B5B88E4
:10B0D0001B1A58425841E6E784B02DE9F34108AC09
:10B0E00084E80F009DF82040BDF82280099F0A9E49
:10B0F0000B9D01A800F018F954B9354B0122FF212E
:10B10000A3F802809D601A701971324B1A7012E018
:10B11000012C17D12E4BBA192A449A60A5221A7015
:10B12000FF221A710C9AA3F80280DF601E615D6134
:10B130009A61284B1C70FFF799FF02B0BDE8F041FF
:10B1400004B07047032C0ED1019A214B117819706D
:10B15000518892689A60AA2259801A71DF601E6134
:10B160005D610122D1E7022C16D1019A184B1178AA
:10B17000A5290BD100225A809A60FF221A70FF2263
:10B180001A710022DA601A615A61EAE7197051886F
:10B19000926859809A60F2E7052C08D100F0B6FD5C
:10B1A00008B1FFF7DFF903220A4B1A70C5E7042C38
:10B1B00009D1074B00229A605A80FF221A70019A27
:10B1C00012791A71B7E7062CB7D10422ECE700BF59
:10B1D000D82C0020D42C00201FB500230293039309
:10B1E000074B019301F02CFF30B906494FF4FE23C1
:10B1F00001A84B6001F048FF05B05DF804FB00BFFB
:10B200002DB00700CC2C002010B500F01DFA04462C
:10B2100020B900F057FD0446FFF718FF204610BD87
:10B2200010B5FFF7FFFE08B1FFF79CF90D4A106853
:10B230000023012404FA03F1014203F1010318BFC2
:10B24000C2F88010202BF5D143F208042068FFF7E4
:10B25000EBFE08B1FFF786F92068BDE8104000F06A
:10B2600069B800BF00E100E007B501A800F05CF894
:10B27000019B1A78A52A07D01879A0F1AA03584291
:10B28000584103B05DF804FB0120FAE710B500F067
:10B29000F4FB98B1642001F032FA00F05FFB08B1D2
:10B2A000FFF760F900F0E9FB08B1FFF75BF900F088
:10B2B0009BFB044638B1FFF755F904E000F0B7FBFB
:10B2C00004460028E6D1204610BD10B588B003AC76
:10B2D000142200212046FFF73BF902238DF80C30A1
:10B2E0000023009394E80F00FFF7F6FEFFF7AEFE91
:10B2F000002008B010BD13B5044601A800F014F8F2
:10B30000019B1A7822705A8862809A68A2601A7922
:10B310002271DA68E2601A6922615A6962619B6986
:10B32000A36102B010BD0000014B0360704700BF75
:10B3300000F00700F0B50346186880F308885868E5
:10B34000FF2464B2EFF30585002D01D1A646004726
:10B350002546064621273FBAF0B4002400250026E2
:10B360000027F0B4F92040B2004700BFF0BD00BF95
:10B370002AB113880144884204D1184670474FF619
:10B38000FF73F7E710F8012B5BBA9BB25340C3F38E
:10B390000312534083EA03331BB25A0102F4FF52F3
:10B3A00053409BB2E7E718DF704770470129F8B5B3
:10B3B0000D4614461F4607D0032912D014B3204669
:10B3C000BDE8F840FFF7CEB80F4B1B78052BF5D141
:10B3D0000E4B1B68002BF1D03A46214604209847BB
:10B3E000ECE7094E3378022BE8D1094B5B689847AC
:10B3F000064B35701E68002EE0D03A46214628469E
:10B40000B047DBE7F8BD00BFFC2C0020F42C002087
:10B41000202D002000B5084B89B001221A700523A9
:10B420008DF80C30079B009303AB0FCBFFF754FE56
:10B4300009B05DF804FB00BFFD2C002000B589B009
:10B4400003238DF80C300A4B1B88ADF80E30094BE6
:10B450005A6804929A68DB680693079B00930592EA
:10B4600003AB0FCBFFF738FE002009B05DF804FBFB
:10B470002C2D0020B82D002000B589B001238DF8B7
:10B480000C300B4B1B88ADF80E3043F208031A68E2
:10B49000084B596804919968DB68069305910092FE
:10B4A00003AB0FCBFFF718FE002009B05DF804FBDB
:10B4B0002C2D0020B82D002010B588B003AC14222C
:10B4C00000212046FFF744F804238DF80C300023B8
:10B4D000009394E80F00FFF7FFFD08B010BD0000D7
:10B4E00008B50C4B0C4818600C4B02221A7043F242
:10B4F00008031968494221F4FF5121F01F0101F5A9
:10B50000F421490801F0E4FD18B1BDE80840FFF757
:10B5100029B808BDD82D0020D02D0020FC2C0020FB
:10B5200008B5084B08481860084B02221A70084BEF
:10B53000196801F0CDFD18B1BDE80840FFF712B859
:10B5400008BD00BFD82D0020C82D0020FC2C0020F5
:10B55000302D002070B5144D1448E96888B001F012
:10B56000B7FD08B1FEF7FEFF1149EA6849680F48C8
:10B57000002301F09DFD064698B903AC0146142254
:10B580002046FEF7E5FF0B4B8DF80C601B88ADF8ED
:10B590000E30EB680693079B009394E80F00FFF7CB
:10B5A0009BFD304608B070BDB82D0020C82D00208E
:10B5B000D02D00202C2D002010B50B4B1B788BB903
:10B5C0000A48FFF7AFFC08B1FEF7CCFF00224FF4AA
:10B5D00070110648FFF766FC044608B1FEF7C2FF8B
:10B5E000204610BD0824FBE7FD2C0020002D002084
:10B5F0007FB505460C469608032168468DE8220073
:10B6000002940396FFF7CFFED8B1B4F5805F11D84E
:10B61000012368468DE8280002940396FFF7C3FED5
:10B6200078B9032368468DE8280002940396FFF753
:10B63000BAFE06E01A46E11AE81AFFF7D9FF002819
:10B64000E6D004B070BD0000F0B585B01F4B01938B
:10B650001F4B204F204E00241C70204B0294394673
:10B6600001A803941C8001F00FFD054618B1347049
:10B67000284605B0F0BD43F20803194C1A687A60F9
:10B6800097E8030084E803001A681648534223F43D
:10B69000FF5323F01F0303F5F42302EB5303294662
:10B6A000114A6360FFF7ECFB08B1FEF75BFF002275
:10B6B0004FF470110D48FFF7F5FB08B1FEF752FF8C
:10B6C0000B4B00221A6001233370D1E7ADB30700A2
:10B6D000B42D0020C82D0020FC2C00202C2D002093
:10B6E000D02D0020B8DA070015B40700002D002087
:10B6F000F82C0020014B1860704700BFF42C00208C
:10B7000038B54368284C0FCB84E80F0021784807F0
:10B7100001D58A0742D1626893073FD1A3689D078C
:10B720003CD1E068840739D11A44204D0244B3F576
:10B73000A04F2A6034D843F2080311F0010F1B68B0
:10B7400018D0C3F5F4239A422AD8194B194A1A6023
:10B75000194A5A60194A9A60194B1B78012B21D15A
:10B76000FFF72AFF044618B9114B28681B68984751
:10B77000204638BD5B4223F4FF5323F01F0303F53B
:10B78000F423B2EB530F0BD8094B0E4A1A600E4A42
:10B790005A608A074CBF0D4A0D4ADCE70624E7E7EA
:10B7A0000C24E5E70824E3E7B82D0020302D002025
:10B7B000202D002021B50700B9B4070079B4070097
:10B7C000FC2C0020E1B40700ABB307003DB4070038
:10B7D00055B50700F8B5064638B383689B0726D1F0
:10B7E000154B1B78052B24D1144D4468144F2B683E
:10B7F0003A68A4002344934204D94FF0FF332B60EE
:10B800000C20F8BDFFF7D8FEA0B90E482B68B16830
:10B810000068224601F04CFC60B92B681C443B6870
:10B820002C609C4218BF0920F8BD0E20F8BD1020E6
:10B83000F8BD0820F8BD00BFFC2C0020F82C00202B
:10B84000302D0020D82D002070B50A4B1D6875B929
:10B85000094E3378042B0AD1084C0948217800F0AE
:10B8600039F910B90523337070BD257070BD0820FB
:10B8700070BD00BFF82C0020FC2C0020B42D00204F
:10B88000342D0020F8B5134B1A78032A074603D04D
:10B89000042A03D0082419E004221A700E4B1B68F6
:10B8A000002BF7D1FFF788FE044678B90B4E7D6870
:10B8B0003378AD00EA18802A0AD80948B9682A46C0
:10B8C000184402F0DFF833781D4435702046F8BD87
:10B8D0000924FBE7FC2C0020F82C0020B42D0020CC
:10B8E000342D002038B50D4C2378052B14D10C4B8A
:10B8F0000C4D1A682B689A420ED106232370FFF76D
:10B900005BFE50B9084B29681B68586800F022F9A3
:10B9100018B90723237038BD082038BDFC2C00203F
:10B92000F82C0020302D0020D82D002010B5084B19
:10B930001B78072B0AD10748FFF7F4FA08B1FEF786
:10B9400011FE054BBDE810409B681847082010BD4C
:10B95000FC2C0020002D0020202D002030B58DB0C3
:10B9600005A8FFF7C8FC089A002A3BD00B9C02F5FB
:10B970008053A3422AD943F20800A4F580510068FD
:10B9800082424FEA510309D821F00100121A00F552
:10B9900080512044FFF72CFE0DB030BD03F58050E0
:10B9A00001250290039001A801950495FFF7FBFC87
:10B9B0000028F1D14FF480500290039001A8019526
:10B9C0000495FFF7F0FC0028E6D1DDE701230193A1
:10B9D00092084FF4805301A8029403930492FFF756
:10B9E000E2FCD9E71046D7E700B58DB005A8FFF710
:10B9F00082FC0998A8B1089BB3B943F208031B68FD
:10BA00005A4222F4FF5222F01F0202F5F42203EB05
:10BA1000520380080022039001A801920293FFF7CD
:10BA2000C2FC0DB05DF804FB0B9A1344F1E700B5BE
:10BA30008DB005A8FFF75FFC0998C0B1089BCBB992
:10BA400043F208031B685A4222F4FF5222F01F02FD
:10BA500002F5F42203EB52030322800801920490C2
:10BA60004FF4F42201A802920393FFF79CFC0DB05F
:10BA70005DF804FB0B9A1344EEE730B58DB005A8D2
:10BA8000FFF739FC0898A0B10B9C00F58053A34246
:10BA900011D943F208031B68984218D8A4F58053C3
:10BAA00023F00105421B5B0805F580516019FFF783
:10BAB0009FFD0DB030BD03238008019304904FF427
:10BAC000805301A802930394FFF76DFCF1E70E2069
:10BAD000EFE700000B2970B5044635D9038905331B
:10BAE00000EB43030144CA1AD2B2012A2CD98B427B
:10BAF0002AD81946154801F0C5FF154B1A884FF68C
:10BB0000FF718A4202D02188914210D15B884FF6A2
:10BB1000FF72934202D062889A4208D121890023A1
:10BB20000A344FF6FE7043F20C058B4201D30B2012
:10BB300070BD34F8022B824204D02E88B24203F149
:10BB40000103F2D1002070BD092070BDDC2D002062
:10BB50008010001008B50022FFF70AFC044A517853
:10BB6000137843EA0123984214BF0B20002008BD3C
:10BB7000DC2D002073B500230DF1020101A8ADF802
:10BB80000230019300F008FDF8B9019C25785DB3FF
:10BB9000174B93F83020032A28D00C2606FB00F21E
:10BBA0009958E9B998189D5093F830200132D2B2D3
:10BBB00083F83020BDF802300E4A9B08013B043464
:10BBC000436084600846FEF711FD019B33B128B144
:10BBD000184600F0FDFC08B1FEF7C4FC02B070BDD1
:10BBE00001300428DAD1F0E70720EEE70420ECE783
:10BBF000E82D00203DBC070011B10846FEF7B2BC9D
:10BC00007047000010B50C230B4A4343D418D15899
:10BC100081B192F83010A0680139C9B282F83010B1
:10BC20000021D150A1606160043800F0D1FC08B15E
:10BC3000FEF798FC002010BDE82D002070B5204EC6
:10BC400096F83030002B39D01D4C00250DE02046F1
:10BC5000FFF7C0FDE8B2FFF7D5FF08B1FEF782FCA1
:10BC60000135042D04F10C04EAD02368002BF7D031
:10BC7000013B042BEED801A252F823F0A5BC07002B
:10BC800055BC070091BC07004FBC0700B1BC0700C2
:10BC9000A36863602046FFF733FD0028DAD0FEF783
:10BCA00061FCD7E72046FFF7EDFDFFF7CDFDF4E798
:10BCB000FFF718FEBDE87040FFF738BE70BD00BF4B
:10BCC000E82D00200E4A08B5002382F830301946CE
:10BCD000D150D0180C33302B81604160F8D1094825
:10BCE000FFF708FD00F0F2FB08B1FEF73BFC064849
:10BCF00000F0D8FB08B1FEF735FC002008BD00BFFE
:10BD0000E82D0020F9BB070075BB070008B500202F
:10BD1000FFF778FF0120FFF775FF0220FFF772FFA2
:10BD20000320FFF76FFFBDE8084000F015BC0000DE
:10BD3000064B074A00201870064B1A6002225A6010
:10BD40009860D86018615861986170471C2E002077
:10BD5000202E0020D83200200020704730B5F9B1E5
:10BD6000124B5C6800220A60E4B1B0F5167F1BD864
:10BD7000D8681D680130013CD86018695C604FF4D8
:10BD8000177404FB00540C60012101FA00F4996956
:10BD90000130214300F0010018619961104630BD67
:10BDA0000E2030BD042030BD0C2030BDD832002024
:10BDB0002DE9F0411E4B9A68B2B359691D688C1A7F
:10BDC00004F001073C464FF4177606FB045E70450D
:10BDD0001ED1012101FA04F09969414099610020C6
:10BDE00021464FF001085E68D3F818C04144002591
:10BDF000164401EA080108FA07F414EA0C0FA6EB4E
:10BE0000020E0BD08DB19A60C3F804E0BDE8F0815A
:10BE100084F00104A142D8D11020E2E7002AF1D039
:10BE2000013A0F460125E6E70420BDE8F08100BF96
:10BE3000D8320020064A13691268013B4FF417718B
:10BE400003F0010301FB0323C3F8580200207047ED
:10BE5000D832002030B5C0B1B9B10E4BDA68B2B1FA
:10BE6000013ADA609A681D6801329A605A694FF4A3
:10BE7000177404FB02540132046002F00102D4F88A
:10BE800058025A610860002030BD0E2030BD0420E9
:10BE900030BD00BFD832002030B50B49086885B0EE
:10BEA00078B10A4B1C6864B1094A039000231568F5
:10BEB0008DF804300B601360029504AB13E90700A2
:10BEC000A04705B030BD00BFFC3200200033002089
:10BED0000C330020DC2810B509D0DD2810D0C02894
:10BEE00016D1FFF7D9FF0E4B0E4A1A6010BD0E4A4D
:10BEF0000E4B19681368581C1060C022CA54F2E730
:10BF0000094A0A4B19681368581C1060DB22F5E7D0
:10BF1000064B054A196813685C1C1460C854E2E7B4
:10BF2000602C002061BF0700FC3200200C33002091
:10BF3000C02802BF014B024A1A607047602C0020E3
:10BF400061BF070008B5DB2000F0C2FB10B9024B4F
:10BF5000024A1A6008BD00BF642C0020F1C007002F
:10BF6000C02810B409D0DB280BD0094B094A196846
:10BF700013685C1C1460C85406E05DF8044BFFF7BE
:10BF80008BBF054B054A1A605DF8044B704700BF34
:10BF90000C330020FC320020602C0020D5BE0700AE
:10BFA00010B5064A064C12682368D05C00F090FB7E
:10BFB00010B923680133236010BD00BF1033002087
:10BFC0000433002008B5C02000F082FB28B9034BE1
:10BFD0001B6813B9024B034A1A6008BD04330020E2
:10BFE000642C0020A1BF07007FB51B4C1B4E1C4DCD
:10BFF000226833689A4216D31A4B2B60FFF7E2FF90
:10C0000038BB194B01221A70184B1B680BB38DF803
:10C010000420174A126802922268039204AA12E9C5
:10C020000700984715E0124B22681B689A5CC02AEB
:10C0300003D022689B5CDB2B05D10E4B2A689A4209
:10C0400004BF0D4B2B602B689847042801D01128A2
:10C05000CED104B070BD00BF0433002008330020EF
:10C06000642C0020C5BF0700F432002000330020FC
:10C0700010330020A1BF070045BF07001FB503789C
:10C08000032B044605D1144B1B78022B01D1FFF77B
:10C09000ABFF2378042B16D1104B1A682AB1104B32
:10C0A0001968104B1B6899420FD30F4B1B6853B193
:10C0B00002920B4A0221126803928DF8041004AA1E
:10C0C00012E90700984704B010BD084B20791B689F
:10C0D00004B0BDE810401847F43200200C330020B3
:10C0E000FC320020F832002000330020602C0020B9
:10C0F00010B50C4A0C4C12682368D35CC02B03D0DB
:10C10000DB2B0DD0042010BDDC2000F0E1FA00286C
:10C11000F9D12368054A01332360054B1A6010BD2D
:10C12000DD20F2E71033002004330020A1BF070018
:10C13000642C0020014B1860002070470033002061
:10C140007FB50B4D2E7886B90A4B93E8070001ACFA
:10C1500084E807000623084A3146204600F06EFABC
:10C1600008B901232B7004B070BD0020FBE700BFAD
:10C17000F4320020BCDA07007DC00700024B002229
:10C180001A7000F0B7BA00BFF432002010B5C0B189
:10C190000D4B1A78012A04D0022A0CBF0420082073
:10C1A00010BD0A4A00241460094A1160094A10604F
:10C1B00002221A70084B094A1A60FFF715FF204641
:10C1C00010BD102010BD00BFF43200200433002049
:10C1D0000833002010330020642C0020C5BF070066
:10C1E000054B064A1860064B1960064B0020186084
:10C1F000054B1A60704700BF0C33002031BF0700A9
:10C20000F8320020FC320020602C0020064B07484A
:10C210001B68DB00DBB20022037004215B4242702A
:10C220008270C370FFF7B2BF3C330020143300208C
:10C2300070B52C4C2C4E024625462378012B14D089
:10C2400002D3022B20D070BD002A4AD12748FEF726
:10C2500069FE08B1FEF786F9254B1B68002B40D01C
:10C26000244ABDE8704010781847012A39D1316856
:10C27000214B06311868FFF789FF08B1FEF772F904
:10C2800002232B700022D8E7022A17D0032A0CD0F1
:10C290003ABB1A4B15481A6044F6DF71FEF702FEEE
:10C2A000F8B1BDE87040FEF75DB9154A1368013377
:10C2B00003F00703136000232370E3E70F4A1368BA
:10C2C000052B0AD001331360074B19680A4B06315E
:10C2D0001868BDE87040FFF759BF064B01221A707D
:10C2E000E9E770BD6033002054330020183300208C
:10C2F0005033002058330020683300205C33002086
:10C3000040330020F0B585B004AB03E907009DF889
:10C310000400032800F28F80DFE800F00802898C17
:10C32000012005B0BDE8F040FFF782BF039E544CEA
:10C33000032E68D9029D6B7813F00F024CD00E2AA1
:10C3400061D1042E7CD02A78500679D5110677D594
:10C350001A44AB781A44EB781A4412F0FF026FD1FA
:10C36000B71E39462846FFF703F8EB195A78EB5DFC
:10C3700043EA0223984263D142492A780B6802F0CB
:10C380000702D8B282421AD1013303F007030B60CF
:10C39000FFF73CFF3C4B012230461A70FFF74AFD85
:10C3A00008B1FEF7DFF836494FF41670FFF7D6FCF8
:10C3B000002851D0042847D1344805214FE04FF4DC
:10C3C00016712068FFF70CFF08B1FEF7CBF805B037
:10C3D000BDE8F040FFF71ABF2978AA780B44134450
:10C3E000EA78134413F0FF030DD1294A1268013291
:10C3F000C1F3C20102F00702914204D1254A032091
:10C400001370FFF715FF256835B14FF416712846F4
:10C41000FFF7E6FE70B30EE019494FF41670FFF710
:10C420009DFC48B3042813D118480521F0E70521E5
:10C430001648EDE7032005B0BDE8F040FEF792B8DE
:10C440004FF416712068E3E70020FEF78BF8B3E79E
:10C450002846FEF787F8E7E720684FF41671FFF7E4
:10C46000BFFE08B1FEF77EF80B4B1B6813B14FF00F
:10C470000000984705B0F0BD20684FF41671C7E77B
:10C48000643300203C330020383300204433002044
:10C4900040330020583300204C3300200220FFF7A7
:10C4A000C7BE0000074B10B5044618600648FFF7EA
:10C4B00041FE08B1FEF756F8002C0CBF0E200020FC
:10C4C00010BD00BF4C33002005C30700174A1848B1
:10C4D000002310B51360174A1360174A1360174AF8
:10C4E0001370174A1370174B174A01211960174B25
:10C4F0001960174B1970FEF7C3FC08B1032010BD7B
:10C50000FFF716FC88B9FFF71BFE70B9114C4FF40A
:10C5100016702146FFF722FC0028EFD120684FF467
:10C520001671BDE81040FFF75BBE10BD68330020F8
:10C53000C8DA0700543300205C3300203833002071
:10C54000603300203C3300209DC4070040330020AE
:10C5500058330020643300200C4A08B500231360D0
:10C560000B4A1360FFF7F8FB08B1FDF7FBFFFFF77D
:10C5700005FE08B1FDF7F6FF0648FEF7D3FC0428D8
:10C5800002D10020FDF7EEFF002008BD503300204F
:10C590004C3300201833002037B50D46044698B1BF
:10C5A00091B10A4B19780022019259B101A91A7070
:10C5B000FFF750FC019B063B2B802368043323606C
:10C5C00003B030BD0420FBE70E20F9E7383300202C
:10C5D0000438FFF7EDBB000013B50478012C12D12D
:10C5E00004238DF80030436811481B788DF804301F
:10C5F000214600F0A3FA0F4B1C700F4B1B686846D6
:10C60000984702B010BD022C08D1C36808488DF8C5
:10C6100000400121019300F091FAEEE7002CF0D1E7
:10C6200002A8032300F8083D034B1B68E8E700BF9E
:10C6300070330020713300206C330020F0B51F4DA3
:10C64000064617469E460FCD89B06C460FC495E846
:10C650000F0084E80F00B368069333798DF81CE06F
:10C660001A1C18BF01228DF814207279002A14BFF9
:10C670000E2200228DF81520F2780292B2780392F1
:10C6800032780192727800920D4A17600D4A0021AB
:10C69000022B11700FD00C49684600F0F7F840B932
:10C6A0009DF81D300BB900F001FB0121074800F097
:10C6B00045FA09B0F0BD0620FBE700BFCCDA070061
:10C6C0006C33002071330020D9C50700703300207F
:10C6D00008B5074B01211870184600F0C3F911285E
:10C6E00004D0002814BF0320002008BD042008BD8A
:10C6F0007233002008B500F05FF9002008BD82B059
:10C700000190019B0BB902B07047019B013B019363
:10C7100040F2E730013800BF00BF00BF00BF00BFDC
:10C7200000BF00BF00BF00BF00BF00BF00BF00BF11
:10C7300000BF00BF00BF00BF00BF00BF00BF00BF01
:10C7400000BF00BF00BF00BF00BF00BF00BF00BFF1
:10C7500000BF00BF00BF00BF00BF00BF00BF00BFE1
:10C7600000BF00BF00BF00BF00BF00BF00BF00BFD1
:10C7700000BF00BF00BF00BF00BF00BF00BF00BFC1
:10C7800000BF00BF00BF00BF00BFC3D1B9E70000BA
:10C7900000284FEA4111BFBF00F00F020E4BC9B293
:10C7A0009954A8BF00F1604300F01F024FEA5010F7
:10C7B000A8BF03F561434FEA8000A8BFC9B200F1EA
:10C7C0006040A8BF83F8001300F561400123934047
:10C7D000C0F880310360704714ED00E0074B002281
:10C7E0001A60074A938A91689BB2C95C938A0133A5
:10C7F0009BB29382034BC3F81C1570471C21004069
:10C8000074330020002000401FB501238DF8003054
:10C81000054B8DF808000191684693E806009047A3
:10C8200005B05DF804FB00BF743300201FB5084B52
:10C830008DF808009968019100228DF800209A7502
:10C84000684693E80600904705B05DF804FB00BF1A
:10C85000743300200A4B0B49D87D0B4A18B9086085
:10C86000D2F81835704700200860597ED2F81805B4
:10C87000DA6850545A7E0132D2B25A76704700BFFD
:10C880007433002008210040002000402DE9F041D1
:10C89000414C94F81BC08846BCF1000F78D13F4B47
:10C8A000002808BF184601230268457F257793407A
:10C8B0004FF0A0420327C2F80835036803F5E07380
:10C8C00042F82370436803F5E07342F823C0344B09
:10C8D0008669C3F82465467D90F814E046EA0E06A2
:10C8E000C3F86C6590E84200C3F80C15C3F81465F2
:10C8F000067D002D3BD0012E13D1816801F5E07E2D
:10C9000042F82EC0C1688E40C2F80865C66806F5B8
:10C91000E07642F82670C6688268C3F80865C3F8F6
:10C9200010250369C4F804802360B8F1000F0FD00C
:10C93000017F1C4A1DB31C4800230360036143614F
:10C940001360174B194AC3F804230220FFF720FF96
:10C95000227F134BD2B10822C3F800250020012307
:10C96000E0752076A075E376A076BDE8F081012E13
:10C97000D7D1816801F5E07E42F82E50C2E70C4B1A
:10C980001D6015600B4AC3F8E821DEE70422E3E7E7
:10C990000820BDE8F08100BF74330020ECDA070006
:10C9A00000200040442100401021004010030200FC
:10C9B0001C2100408000020070B5254A254B117FE4
:10C9C00000293FD00020C3F8000553684BB1214B2C
:10C9D00000293AD02048C3F80803204B0420C3F8AC
:10C9E00080001C4BD3F80C55D3F81445D3F8081528
:10C9F000D3F810054FF0FF36C3F80C6504F5E0746A
:10CA0000C3F8146505F5E075C3F80865C3F810654B
:10CA10004FF0A043022643F8256043F82460441CED
:10CA20001CBF00F5E07043F820604B1C1FBF4FF0A7
:10CA3000A04301F5E071022043F821000023D376E2
:10CA4000536070BDC3F80015BFE70548C3E700BFDA
:10CA500074330020002000401003020000E100E0D9
:10CA60008402020070B52E4C237F23B1020C120405
:10CA7000B2F1005F4FD1A57D002D4ED1A175A06010
:10CA8000A5822849EBB1284B284A1D601560284D26
:10CA9000A67DC5F844050120C5F8486508606168B1
:10CAA00009B1002070BD1868116818B90029FAD0C2
:10CAB0000F2003E0002914BF0F2000200023A375DE
:10CAC00070BD1C48036001230B60FFF787FE63689D
:10CAD000002BE6D1A27DA38A9BB293420CD3A38AFA
:10CAE0009BB2B3F5807FE3D00368002BFCD0124BE0
:10CAF00001221A600020E1E7036823B9A38A9BB2F0
:10CB0000B3F5807FF8D1A38A9BB2B3F5807FE2D0E2
:10CB1000FFF764FEDEE7102070BD112070BD00BF7E
:10CB2000743300200820004020210040582100409C
:10CB3000002000401C2100400C2000402DE9F04165
:10CB4000534D2B7F23B1020C1204B2F1005F38D198
:10CB50006C682CB14F4A93B14FF40476C2F8086365
:10CB6000EA7D8AB32A7E002A52D02CB1494A4BB1C1
:10CB70004FF40473C2F804331120BDE8F0814FF480
:10CB80000176EBE74FF40173F4E700287DD00F2026
:10CB9000BDE8F0814FF404723E4BC3F8042363E018
:10CBA000002B55D1002C53D1FFF754FE6B7EEA7D4C
:10CBB0009A4244D823464BE0374A54E04FF401727E
:10CBC000EAE71020BDE8F081E975E8606A762A7628
:10CBD0001BB3324B1A605A63C3F82404C3F82814F9
:10CBE000A3F5887301221A606B68002BD2D12B4AFF
:10CBF0002B492C4C16680868236816B908B9002B15
:10CC0000F8D00022EA75002BBFD00320BDE8F081E8
:10CC100028612976002B2AD10123AA7E3AB933B99B
:10CC2000204A136042F81C3C1A4B01221A606A68C1
:10CC3000002AC3D11A4E1B4FDFF86C8032603B686C
:10CC4000D8F800203468002AAAD10CB9002BF6D0FD
:10CC50000022EA75002BD8D1002C98D1AA7E01239E
:10CC6000002AA9D00B4A13600020BDE8F0810B4BCD
:10CC70001A605A63C3F82404C3F82814D3F8F020C8
:10CC800042F02002C3F8F020AEE7BDE8F08100BF1B
:10CC90007433002000200040042000401021004098
:10CCA000442100402421004008210040074B1A7F06
:10CCB00052B99A7E42B906490A6041F81C2CA1F586
:10CCC000927101220A609A76704700BF7433002087
:10CCD00024210040F0B56B4C6B4D217F85B00029BD
:10CCE00056D06A490A68002A33D0002302220B601A
:10CCF0008DF80020664AD2F88014C2F8801403919F
:10CD0000D2F83C258DF80820E268E375237601927D
:10CD100094E80A00684698472B685BB100232B60B3
:10CD2000E27D3AB1E3755A4BE168D3F83C05C0B2F5
:10CD3000FFF76AFD574B1A684AB100221A60A37DBB
:10CD40002BB1534BD3F84C05C0B2FFF76FFD05B0C4
:10CD5000F0BD514B19680029DED04D4E1A60D6F84F
:10CD60003C35E07DDBB29842D6D1237E6BB1D6F85C
:10CD70000072E16827F02007C6F80072E3752369A6
:10CD8000E3602276FFF740FDC6E7E375E168F9E767
:10CD90003F4BD3F8042312F4007F184640D03B4A9F
:10CDA0001668002E3CD011604FF40172C3F80823BE
:10CDB000A37E13B9394B01221A600223344A8DF83D
:10CDC0000030D2F88034C2F880340393E37D8DF8CC
:10CDD0000830E36801930023E3752376684694E8FE
:10CDE0000A0098472E4A136833B1A38AA07D9BB2EC
:10CDF00098423FD9FFF7F2FC2B68002BA7D0002305
:10CE00002B60A37E13B1224B01221A60E37D002B1D
:10CE10009DD00023607EE168E375FFF7F5FC96E79F
:10CE2000D0F804335B07DDD51E4B1B68002BD9D02F
:10CE3000FFF710FD637EE27D9A42D3D1237E53B18A
:10CE4000E3752369E168E3600023607E23766376FF
:10CE5000FFF7DAFCC6E7A37E13B9104B01221A6074
:10CE60000B4B4FF40172C3F808230023E375607E77
:10CE7000E168EDE7002313600028BDD0FFF7D6FC82
:10CE8000BAE700BF74330020442100402421004051
:10CE900000200040202100401021004004200040DC
:10CEA0001C2100400821004029DF704728DF70471F
:10CEB00037B50B460C465A6814F80C1BDD68009217
:10CEC000044A5B6952F8255002462046A84703B041
:10CED00030BD00BF9433002038B5184C2378182299
:10CEE00002FB03431A795D69012A03D0032A19D092
:10CEF0000F2038BD124A996910689A68DB680003F0
:10CF0000121AB2F5805F1D44014438BF92082844CC
:10CF100028BF4FF48062FFF7C7FF0028E9D1012343
:10CF2000A37038BD4FF080531869054B80B2B5FB34
:10CF3000F0F518682844FFF7B9FFEEE7A0330020AA
:10CF40009834002070B5134D6C780A2C1FD02E78C1
:10CF50003444E4B2092C84BF0A3CE4B2182606FB30
:10CF60000454A261207103C9A360049BE360AB7801
:10CF700004F1100282E8030023B100206B78013332
:10CF80006B7070BDFFF7A8FF1128F7D1F5E70420FB
:10CF900070BD00BFA033002070B527498B780C46C8
:10CFA000002B48D0002602288E7002D0032832D0F1
:10CFB00070BD0D78214A182101FB0541136889686D
:10CFC0000133B1EB033F13601BD863781660013B5C
:10CFD00063706B1CDBB21826092B06FB054188BF6A
:10CFE000A5F10903043100202370FFF761FF06FB60
:10CFF0000543002203211A719A6019615A619A61EE
:10D00000DA606378BBB1A378ABB9FFF765FF90B185
:10D0100011280AD170BD0B78182202FB03110431CC
:10D020000D20BDE87040FFF743BF2178182303FBB4
:10D0300001410431F5E770BDA03300209834002091
:10D040000D4A002313600D4A032013705370937030
:10D0500002F1F00113719360106153619361D36029
:10D0600018329142F6D1064A1360064A0020136036
:10D0700053609360704700BF98340020A0330020B5
:10D080009434002094330020074A1368032B1FBFF9
:10D090000B60591C1160054A1DBF016842F823103E
:10D0A00000200420704700BF9434002094330020F7
:10D0B00013B5CC180C43A40708D1009313460A46B5
:10D0C00001460120FFF73EFF02B010BD1020FBE734
:10D0D00007B500220B46009201460320FFF732FFFE
:10D0E00003B05DF804FB13DF704718DF70470000E2
:10D0F00010B58AB004461022002101A8FDF728FAD5
:10D10000022301931A4B186800902CB101A8FFF775
:10D11000ECFF08B1FDF726FA4FF4F420FFF7E3FF28
:10D1200008B1FDF71FFA134B13494822684600F077
:10D13000B1FA08B1FDF716FA012105AA084600F078
:10D14000FDFA08B1FDF70EFA9DF8203005A843F06E
:10D1500001038DF8203000F009FB08B1FDF702FA59
:10D16000064800F0CFFA08B1FDF7FCF90AB010BD8F
:10D170000CDB07009DD70700B437002081D10700E2
:10D18000FFF70ABF08B5054A14210820FDF70AFA7F
:10D1900018B1BDE80840FDF7E5B908BD9C34002092
:10D1A000F0B51F4C1F4B217869BB1F4D1F4E2A68DD
:10D1B000186856F822600130B04218602EDB196002
:10D1C0004FF0A0431A4FD3F8040557F82270C64316
:10D1D00006F40036C3F8086500F40030154EC3F8B5
:10D1E0000C0530680130B842306017DB0132062A86
:10D1F00031602A6012DD4FF40032C3F80C250123A0
:10D2000023702960F0BD1A6842F20F7101328A4220
:10D2100001DC1A60F0BD00221A602270F0BD00BF70
:10D220000438002000380020FC3700202CDB0700E9
:10D2300010DB07000838002070B54FF08043D3F8AA
:10D240001C45B12C04BF0022C3F81C254FF0A0439D
:10D250004FF00302C3F84427C3F84827C3F84C270C
:10D260004FF46022C3F808253D4B1B680CBF012614
:10D270000026B3F5F42F02D00020FDF773F94FF02C
:10D2800080531B69B3F5805F02D00020FDF76AF977
:10D29000344B354A05210020FDF79CFD08B1FDF710
:10D2A00061F94FF0A045314BC5F84037FDF794FFC9
:10D2B0004FF40033C5F80C3500F090FA00234FF41A
:10D2C0007A722B49012000F0ABFAFDF7CDFFF0B1E7
:10D2D000FDF7DCFF08B1FDF745F9B4F1B10018BF67
:10D2E0000120FFF705FFFFF74DFFFDF7EEFF08B147
:10D2F000FDF738F94FF0A043D3F81035DB0300D524
:10D3000076B1FDF781FF90B1FDF72CF90FE0B4F194
:10D31000B10018BF0120FFF7EBFEFFF733FFE9E78D
:10D3200043F208031868FDF7B9FE0028E9D043F27C
:10D3300008042068FDF7B2FE78B1FDF795FF60B9EB
:10D340004FF0A043C3F84407C3F84807C3F84C079D
:10D35000C3F840072068FDF763FF002070BD00BFE1
:10D360001410001091AF0700EC3500200C000300F2
:10D37000A1D107000C4B1B78062B10D10B4B1B685F
:10D380001A070CD10A4B186800F0F003302B08D0B4
:10D3900000F0E000A0F140035842584170470020DF
:10D3A00070470120704700BFE00F00F0E40F00F06D
:10D3B000E80F00F0094B1B78062B0CD1084B1B68BB
:10D3C0001A0708D1074B186800F0F000A0F13003ED
:10D3D0005842584170470020704700BFE00F00F0EE
:10D3E000E40F00F0E80F00F008B5FFF7E3FF10B11D
:10D3F000684B694A1A60FFF7BDFF28B1674B684A5E
:10D400001B68C3F342331360FFF7D4FF20B1654AB2
:10D41000D36823F08073D360FFF7ACFF40B14FF0C7
:10D4200080430022C3F80C21C3F81021C3F838252B
:10D43000FFF7C0FF10B15C4B03221A60FFF7BAFF81
:10D4400040B15A4B05221A6001229A6700229A6065
:10D450003F225A60564B1B78062B09D1554B1B684F
:10D460001B0705D1544B1B6803F0F003502B48D029
:10D47000524AD2F8883043F47003C2F88830BFF3C0
:10D480004F8FBFF36F8F4FF01023D3F80022002A85
:10D4900003DBD3F80432002B2FDA494B0122C3F807
:10D4A0000425D3F80024002AFBD04FF010221521C8
:10D4B000C2F80012D3F80024002AFBD04FF010234A
:10D4C0001522C3F804223E4B1A46D3F80014002953
:10D4D000FBD00021C3F80415D2F80034002BFBD098
:10D4E000BFF34F8F3549374BCA6802F4E0621343EC
:10D4F000CB60BFF34F8F00BFFDE7334B334A1A6059
:10D5000008BD4FF08052324BD2F80414C3F82015F6
:10D51000D2F80814C3F82415D2F80C14C3F828154F
:10D52000D2F81014C3F82C15D2F81414C3F830151F
:10D53000D2F81814C3F83415D2F81C14C3F84015E7
:10D54000D2F82014C3F84415D2F82414C3F84815AF
:10D55000D2F82814C3F84C15D2F82C14C3F850157F
:10D56000D2F83014C3F85415D2F83414C3F8601547
:10D57000D2F83814C3F86415D2F83C14C3F868150F
:10D58000D2F84014C3F86C15D2F84424C3F87025BF
:10D590006EE700BF74C007400DF0ADBA4402001042
:10D5A0003C050040F0ED00E0A005004010560040B2
:10D5B000E00F00F0E40F00F0E80F00F000ED00E0F5
:10D5C00000E001400400FA05682C00200090D00320
:10D5D00000C0004052DF704710DF704760DF7047C7
:10D5E00061DF704708B5FCF7CBFF08BD2DE9F743B5
:10D5F000234B1B7803F0FF07002B3AD0214D224E1E
:10D600002B683468DFF88480DFF88490B3FA83F302
:10D61000B4FA84F45B096409ABB901A8FFF7DAFF37
:10D62000052829D038B1FCF79DFF74B13A46002493
:10D6300023461446F0E72B6801989847F5E73268CF
:10D640001846904711E0A4B91C46B8F80030ADF870
:10D650000430D9F8003001A91846FFF7C1FF0528AA
:10D6600005D00028EBD0FCF77DFF0022E0E7002C7E
:10D67000DCD003B0BDE8F083002CFAD13C46E4E7EF
:10D68000183800201C380020103800200C380020EA
:10D690002038002010B509B38C071FD1124C21602F
:10D6A00012490A80124A13491360FFF795FFC8B95F
:10D6B000114B01221A70114A92F81633C3F3411329
:10D6C000012B0DD90E4B996821B11A6842F48002E2
:10D6D0001A6010BD4FF48003136010BD072010BD09
:10D6E00042F2020010BD00BF203800200C3800209C
:10D6F00014380020E5D507001838002000E100E0CC
:10D700003C38002018B1034B1860002070470E20F1
:10D71000704700BF1C38002008B5074B1B682BB1B1
:10D72000984738B1BDE80840FCF71CBFBDE8084089
:10D73000FFF75CBF08BD00BF1438002070B5144669
:10D7400005460E46142200212046FCF701FF227BED
:10D7500026720021012361F30002238021612273DC
:10D76000657205B1A372002070BD000007B5054BBE
:10D77000019302A9019B41F8083DFFF72FFF03B079
:10D780005DF804FB002C002008B511B10020FCF767
:10D79000E9FEBDE80840FFF729BF00000021024A6A
:10D7A0000846FCF723BF00BF89D70700B0F5A07F6C
:10D7B0000AD1064B1B7813B9054B02221A70054B90
:10D7C000054A1B6810681847704700BF24380020BE
:10D7D00025380020283800202C38002008B5054ABC
:10D7E0000548002100F06AF810B9044B01221A70B4
:10D7F00008BD00BFADD7070048DB07002538002073
:10D8000010B5054C2378032B04D1044800F0C4F86C
:10D8100002232370002010BD2538002048DB0700BC
:10D820002DE9F7430546904699460F46002935D025
:10D8300001282ED0002833D14FF480761A4C23785B
:10D8400083B3032B04D1FFF7DBFF08B1FCF78AFE9B
:10D850002378022B02D1154800F0A2F8144B13488C
:10D860001D70144B1F60144BC3F8009001230093EC
:10D8700042463346002100F0A8F823780B48022BDB
:10D8800009D100F085F803232370002003B0BDE820
:10D89000F0830646D2E700F06DF8F4E70E20F5E7D6
:10D8A0000720F3E70820F1E72538002048DB0700D0
:10D8B00024380020283800202C380020F8B52B4EC2
:10D8C00005790C2303FB056307461B7A0C46002BE6
:10D8D00047D1002A47D011B9254C04EBC5040C23CD
:10D8E0006B43F118F250002263684B6096467979D9
:10D8F0003868D3B2994202F101022CD8E17840F3A2
:10D900000730FEF745FF39686378D1F8042503F046
:10D91000030322F003021343C1F804353968A378E6
:10D92000D1F8082503F0030322F003021343C1F8E2
:10D93000083539682378D1F8102503F00F0322F059
:10D940000F021343C1F810350C2303FB05650123B7
:10D950002B720020F8BD9B0003F5A07340F803E094
:10D96000C5E70820F8BD0720F8BD00BF303800200B
:10D9700050DB0700036801221A600379034A0C2177
:10D9800001FB032302221A72704700BF30380020C7
:10D99000036801221A607047036801225A607047C9
:10D9A00003680122DA60704730B54FF480348C4050
:10D9B00005683BB1C5F80443036801F5A87143F855
:10D9C000212030BDC5F80843F6E7F0B507689DF89B
:10D9D00014E0D7F8004240F201158D4024EA050416
:10D9E000C7F800420568D5F800422343C5F8003265
:10D9F0007346BDE8F040FFF7D7BF00002DE9F041C6
:10DA00000E4C0F4F0F4E00254FF48038236804F55D
:10DA1000E04080B253B1D7F8043308FA05F21A4255
:10DA200004D0002323603368716898470135042DC2
:10DA300004F10404EAD1BDE8F08100BF4091004048
:10DA400000900040303800200649074A074B9B1AD7
:10DA500003DD043BC858D050FBDCFFF7C5FCFCF7E6
:10DA600005FD000064DB0700002C0020782C00205E
:10DA7000FEE7FEE7FEE7FEE7FEE7FEE7FEE7FEE77E
:10DA8000FEE7FEE710B5431E0A44914200D110BDE7
:10DA900011F8014B03F8014FF7E70000F8B500BF9C
:10DAA000F8BC08BC9E467047F8B500BFF8BC08BC7F
:10DAB0009E467047002C0020002D00200806050718
:10DAC0000000000000509D001833002006000000F8
:10DAD0000800000007000000050000000000000032
:10DAE000000000000000D601060000000600000053
:10DAF0000800000007000000050000000000000012
:10DB0000000000000000D601060000000100000730
:10DB100001000000020000000300000004000000FB
:10DB200005000000080000000A00000010270000A7
:10DB300088130000A60E0000C4090000530700006F
:10DB4000E2040000E8030000009000400004000030
:0CDB5000000000060000000000000000C3
:08DB5C0010C9FF7F0100000069
:10DB640000000000000000000000000000000000B1
:10DB740000000000000000000000000000000000A1
:10DB84000000000000000000000000000000000091
:10DB94000000000000000000000000000000000081
:10DBA4000000000000000000000000000000000071
:10DBB4000000000000000000000000000000000061
:10DBC40031BF0700A1BF07000090D00325A40700C0
:08DBD40001A40700000000009D
:020000020000FC
:020000041000EA
:0410140000A0070031
:0410180000E00700ED
:040000037000DA4966
:00000001FF
